:100000000C9465000C948D000C948D000C948D0064
:100010000C948D000C948D000C948D000C948D002C
:100020000C948D000C94AE010C948D000C948D00FA
:100030000C948D000C948D000C948D000C948D000C
:100040000C948D000C948D000C948D000C948D00FC
:100050000C948D0000000001000000000000000072
:100060000403000600000000000000000000000083
:100070000000000001020408102040800102040872
:100080001020408001020408102040808040201091
:100090000804020102020202020202020404040431
:1000A0000404040403030303030303030101010124
:1000B0000101010100003B00380035003200000062
:1000C0003A00370034003100960011241FBECFE5FE
:1000D000D4E0DEBFCDBF10E0A0E6B0E0E2E3F7E0A1
:1000E00002C005900D92AA36B107D9F720E0AAE622
:1000F000B0E001C01D92AB38B207E1F710E0CAECE6
:10010000D0E004C02297FE010E948403C83CD107BE
:10011000C9F70E943F030C9497030C94000069E711
:1001200070E08AE690E00C9440010895AF92CF927F
:10013000EF920F9384E0A82E93E0C92E22E0E22EE6
:1001400001E026E047E065E08AE690E00E94AD002D
:100150000F91EF90CF90AF900895AF92BF92CF9252
:10016000DF92EF92FF920F931F93CF93DF93EC01F7
:10017000862F9AE0E0E6F0E0DE0101900D929A957C
:10018000E1F7E62FF0E0FB87EA8750E05D874C87D8
:1001900030E03F872E8710E0198B088BF12CFB8A0B
:1001A000EA8AD12CDD8ACC8AB12CBF8AAE8A61E082
:1001B0000E94900261E08C850E94900261E08E8531
:1001C0000E94900261E088890E94900261E08A8921
:1001D0000E94900261E08C890E94900261E08E8909
:1001E000DF91CF911F910F91FF90EF90DF90CF9013
:1001F000BF90AF900C949002CF93DF93EC0160E03E
:1002000088890E94C90260E08A890E94C90260E070
:100210008C890E94C90260E08E89DF91CF910C9495
:10022000C902EF92FF921F93CF93DF931F92CDB736
:10023000DEB77C01162F60E0FC01868549830E94B1
:10024000C902C7010E94FC00298140E0F7016485D2
:1002500082850E94FF0261E0F70186850E94C90243
:1002600061E0812F0E94C90261E070E080E090E0CF
:100270000F90DF91CF911F91FF90EF900C94160299
:10028000AF92BF92CF92DF92EF92FF920F931F93A4
:10029000CF93DF93EC019B01203167E236072CF40A
:1002A00037FF05C020E030E002C02FE037E2C9018F
:1002B00068EE73E00E944F035B0188E19CEF689F4A
:1002C000F001699FF00D789FF00D1124E20FF31FEC
:1002D000CF0164E670E00E944F037B014CE94603C6
:1002E0009001479F300D11242E0F3F1FC9016AE076
:1002F00070E00E944F036B0146EF46038001479F69
:10030000100D1124020F131FFE01EA0DFB1D408189
:100310006889CE010E941101FE01EE0DFF1D408192
:100320006A89CE010E941101FE01EC0DFD1D408184
:100330006C89CE010E941101FE01E00FF11F408186
:100340006E89CE01DF91CF911F910F91FF90EF90B9
:10035000DF90CF90BF90AF900C9411011F920F923D
:100360000FB60F9211242F933F938F939F93AF93C8
:10037000BF938091830090918400A0918500B091FB
:1003800086003091820026E6230F2D3728F029EED3
:10039000230F0196A11DB11D20938200809383003D
:1003A00090938400A0938500B0938600809187008D
:1003B00090918800A0918900B0918A000196A11DBA
:1003C000B11D8093870090938800A0938900B0931B
:1003D0008A00BF91AF919F918F913F912F910F9084
:1003E0000FBE0F901F9018959FB7F894409187000B
:1003F000509188006091890070918A0082B708B698
:1004000000FE06C08F3F21F04F5F5F4F6F4F7F4F61
:100410009FBF2227342F452F562F280F311D411DF6
:10042000511DA3E0B0E00E94630308958F929F9254
:10043000AF92BF92CF92DF92EF92FF926B017C015D
:100440000E94F4014B015C01C114D104E104F104E8
:10045000F1F00E944E030E94F401681979098A099B
:100460009B09683E73408105910570F321E0C21A33
:10047000D108E108F10888EE880E83E0981EA11CDF
:10048000B11CC114D104E104F10429F7DDCFFF90C0
:10049000EF90DF90CF90BF90AF909F908F90089596
:1004A000789483B7826083BF83B7816083BF83B74B
:1004B000806483BF83B7886083BF89B7816089BF49
:1004C0001EBC8EB582608EBD8EB581608EBD8FB52F
:1004D00081608FBD85B5846085BD85B5806485BD2F
:1004E000329A319A309A379A1AB80895833049F07F
:1004F00018F4813089F00895843031F0863041F06D
:1005000008958FB58F7702C08FB58F7D8FBD089509
:1005100085B58F7D85BD089583B78F7D83BF089591
:10052000CF93DF9390E0FC01EC58FF4F2491FC0146
:10053000EC56FF4F8491882349F190E0880F991F72
:10054000FC01E254FF4FA591B4918C549F4FFC01E4
:10055000C591D4919FB7611108C0F8948C912095F2
:1005600082238C93888182230AC0623051F4F894EC
:100570008C91322F309583238C938881822B8883B2
:1005800004C0F8948C91822B8C939FBFDF91CF9104
:1005900008950F931F93CF93DF931F92CDB7DEB7CC
:1005A000282F30E0F901EC5AFF4F8491F901EC5803
:1005B000FF4F1491F901EC56FF4F04910023C9F04D
:1005C000882321F069830E9476026981E02FF0E0A0
:1005D000EE0FFF1FEC54FF4FA591B4919FB7F89415
:1005E0008C91611103C01095812301C0812B8C93E4
:1005F0009FBF0F90DF91CF911F910F910895BF92F0
:10060000CF92DF92EF92FF920F931F93CF93DF93DE
:10061000C82ED62EB42EC7E0D0E0022F10E087E01F
:10062000E82EF12CB1100AC0F701EC1BFD0BB8014C
:1006300002C075956795EA95E2F707C0B8010C2EE0
:1006400002C0759567950A94E2F7617077278C2D43
:100650000E94C90261E08D2D0E94C90260E08D2DCB
:100660000E94C9022197F0F6DF91CF911F910F915F
:10067000FF90EF90DF90CF90BF90089508950E9473
:1006800050020E943E030E948F00C0E0D0E00E9412
:1006900095002097E1F30E940000F9CF089597FBA1
:1006A000072E16F4009407D077FD09D00E946E0340
:1006B00007FC05D03EF4909581959F4F0895709565
:1006C00061957F4F08950E948803A59F900DB49F68
:1006D000900DA49F800D911D11240895AA1BBB1B92
:1006E00051E107C0AA1FBB1FA617B70710F0A61B32
:1006F000B70B881F991F5A95A9F780959095BC0153
:10070000CD010895EE0FFF1F0590F491E02D09949F
:10071000A29FB001B39FC001A39F700D811D112442
:10072000911DB29F700D811D1124911D0895F894A3
:02073000FFCFF9
:0A07320014F61A52F051117610501F
:00000001FF
